:100000000C9464000C94DE040C940B050C948C008E
:100010000C948C000C948C000C948C000C948C0030
:100020000C948C000C948C000C948C000C948C0020
:100030000C948C000C9497040C948C000C948C0001
:100040000C94F9050C948C000C949F090C94D10924
:100050000C948C000C948C000C948C000C948C00F0
:100060000C948C000C948C0000000008000201002D
:100070000003040700000000000000000102040863
:100080001020408001020408102001020408102002
:10009000040404040404040402020202020203032E
:1000A00003030303000000002300260029000000D2
:1000B0000000250028002B0000000000240027007D
:1000C0002A00F101010A150211241FBECFEFD8E06A
:1000D000DEBFCDBF11E0A0E0B1E0EEEEFFE102C077
:1000E00005900D92A63CB107D9F722E0A6ECB1E04D
:1000F00001C01D92A43AB207E1F710E0C6ECD0E0CF
:1001000004C02297FE010E94290DC23CD107C9F705
:100110000E948A0B0C94EA0F0C94000081E08093FB
:10012000CC011092CE011092CD0160E089E00E94D6
:100130009A0561E084E00C949A058091CC018823B3
:1001400019F12091CD013091CE018091080190915B
:100150000901281739077CF061E089E00E949A05BF
:1001600060E084E00E949A051092CE011092CD01C9
:100170001092CC0108958091CD019091CE0101960D
:100180009093CE018093CD0108958FEC91E00E9471
:10019000BC0785ED91E00E94BC078BED91E00E94C9
:1001A000BC0781EE91E00E94BC0787EE91E00E94BF
:1001B000BC078DEE91E00C94BC0726E040E052ECC9
:1001C00061E070E083E092E00E94270B6FE071E055
:1001D00083E092E00E94540761E088E00E9461059C
:1001E00061E089E00E94610561E083E00E946105B1
:1001F00061E084E00E94610560E083E10E946105A6
:1002000041E050E06EE870E080E00E94BE04809122
:100210000A0190910B0120E120938100109280004F
:10022000AA2797FDA095BA2F33E0880F991FAA1F20
:10023000BB1F3A95D1F7009721E0A207B10520F442
:1002400021E02093F30142C0009728E0A207B10506
:1002500058F422E02093F30123E0B695A7959795F3
:1002600087952A95D1F732C0009720E4A207B105FF
:1002700058F423E02093F301F6E0B695A7959795FF
:100280008795FA95D1F722C00097A10521E0B20722
:1002900040F424E02093F301892F9A2FAB2FBB2742
:1002A00015C00097A10524E0B20758F425E020937B
:1002B000F3017AE0B695A795979587957A95D1F74A
:1002C00005C085E08093F3018FEF9FEF9093F501D8
:1002D0008093F4018091F4019091F501909387004F
:1002E000809386008091F3018061809381008091EA
:1002F0000A0190910B01AA2797FDA095BA2F0097AC
:10030000A105B10509F463C063E0880F991FAA1F16
:10031000BB1F6A95D1F7009721E0A207B10520F431
:1003200021E02093F30142C0009728E0A207B10525
:1003300058F422E02093F30153E0B695A7959795E2
:1003400087955A95D1F732C0009720E4A207B105EE
:1003500058F423E02093F30146E0B695A7959795CE
:1003600087954A95D1F722C00097A10521E0B207F1
:1003700040F424E02093F301892F9A2FAB2FBB2761
:1003800015C00097A10524E0B20758F425E020939A
:10039000F3012AE0B695A795979587952A95D1F709
:1003A00005C085E08093F3018FEF9FEF9093F501F7
:1003B0008093F4018091F4019091F501909387006E
:1003C000809386008091F3018061809381008DE9A4
:1003D00090E090930D0180930C0181E080936F0079
:1003E000089566EA71E08DEE91E00E942A0866EABF
:1003F00071E087EE91E00E942A0866EA71E081EEE2
:1004000091E00E942A0866EA71E08BED91E00E947B
:100410002A0866EA71E085ED91E00E942A0866EA02
:1004200071E08FEC91E00C942A080C94C5001F93A6
:10043000CF93DF93CDB7DEB72C970FB6F894DEBF1E
:100440000FBECDBF82E10E94D5068A3C9F4FA4F02B
:1004500082E10E94D50667E370E00E94BE0C882707
:1004600077FD8095982F0E94320C20E030E040E02C
:100470005FE30E949B0B13C082E10E94D50667E3F5
:1004800070E00E94BE0C882777FD8095982F0E940F
:10049000320C20E030E040E05FE30E949A0B0E94C3
:1004A000FF0B4AE0469F9001479F300D1124309387
:1004B000C9012093C8012091C8013091C9018091E0
:1004C000CA019091CB01820F931F9093CB0180932F
:1004D000CA0180910601909107010196909307014E
:1004E0008093060180910601909107018436910561
:1004F0000CF471C08091CA019091CB018D399F4F4E
:10050000E4F08091CA019091CB0164E670E00E9412
:10051000BE0CCB012AE0289FB001299F700D112449
:10052000882777FD8095982F0E94320C20E030E0DC
:1005300040E05FE30E949B0B1BC08091CA01909139
:10054000CB0164E670E00E94BE0CCB012AE0289F3C
:10055000B001299F700D1124882777FD8095982F71
:100560000E94320C20E030E040E05FE30E949A0BF2
:100570000E94FF0B2AE030E040E050E00E94F40CC3
:100580003093CB012093CA016091CA017091CB01D5
:100590004AE0CE0107960E946F086EE171E0CE013D
:1005A00001960E942A08BE01695F7F4FCE01019625
:1005B0000E94DA08BC0185ED91E00E944008CE015E
:1005C00001960E94BC07CE0107960E94BC071092BC
:1005D0000701109206016FEC71E085ED91E00E9439
:1005E0001D0981110AC065ED71E08FEC91E00E9458
:1005F000400881E08093C60102C01092C60183E0EA
:1006000092E00E94440A181619060CF06FC04AE0E6
:1006100063E072E0CE0101960E949407BE016F5F15
:100620007F4F8DEE91E00E944008CE0101960E941E
:10063000BC076DEE71E083E092E00E94420727E084
:1006400030E040E050E06DEE71E0CE0101960E9496
:100650004F096EE171E0CE0101960E943009182F1A
:10066000CE0101960E94BC07112331F06DEE71E0BE
:1006700081EE91E00E94400821E230E040E050E04D
:100680006DEE71E0CE0101960E944F0966E271E0C5
:10069000CE0101960E943009182FCE0101960E94CA
:1006A000BC07112331F06DEE71E087EE91E00E94FE
:1006B000400821E230E040E050E06DEE71E0CE0114
:1006C00001960E944F0968E471E0CE0101960E94F4
:1006D0003009182FCE0101960E94BC07112331F07A
:1006E0006DEE71E087EE91E00E9440086BED71E0E5
:1006F00081EE91E00E941D0981110AC061EE71E056
:100700008BED91E00E94400881E08093C70102C018
:100710001092C70121E230E040E050E067EE71E066
:10072000CE0107960E944F0966E271E0CE0107965E
:100730000E943009811113C021E230E040E050E016
:1007400067EE71E0CE0101960E944F0966E271E00A
:10075000CE0101960E94300981110EC007C083E1CD
:100760000E94D005892B41F711E00BC083E10E9464
:10077000D00511E0892B09F410E0CE0101960E940A
:10078000BC07CE0107960E94BC0788E0112381F0C8
:100790000E94D005019731F46AE671E083E092E0AF
:1007A0000E94540760E088E00E949A0561E00FC053
:1007B0000E94D005892B31F466E771E083E092E076
:1007C0000E94540761E088E00E949A0560E083E09F
:1007D0000E949A0527E030E040E050E06BED71E0C8
:1007E000CE0101960E944F096EE171E0CE010196A3
:1007F0000E943009882319F01091C70101C010E050
:10080000CE0101960E94BC071123A9F129E030E036
:1008100047E050E06BED71E0CE0101960E944F0978
:10082000CE0101960E94940923E730E0261B370B86
:100830003093090120930801CE0101960E94BC0764
:1008400065E070E080E090E00E94720661E871E08F
:10085000CE0101960E942A086BED71E0CE0101964F
:100860000E94DA08BC0183E092E00E944207CE01B8
:1008700001960E94BC0727E030E040E050E06FECBA
:1008800071E0CE0101960E944F096EE171E0CE0148
:1008900001960E943009882319F01091C60101C009
:1008A00010E0CE0101960E94BC071123A9F129E0B6
:1008B00030E047E050E06FEC71E0CE0101960E941D
:1008C0004F09CE0101960E94940923E730E0261BD0
:1008D000370B3093090120930801CE0101960E9445
:1008E000BC0765E070E080E090E00E94720660E97D
:1008F00071E0CE0101960E942A086FEC71E0CE01F2
:1009000001960E94DA08BC0183E092E00E9442074F
:10091000CE0101960E94BC072C960FB6F894DEBF5C
:100920000FBECDBFDF91CF911F91089508951F9203
:100930000F920FB60F9211242F933F934F935F9313
:100940006F937F938F939F93AF93BF93EF93FF9397
:10095000E0910C01F0910D010995FF91EF91BF918C
:10096000AF919F918F917F916F915F914F913F9147
:100970002F910F900FBE0F901F9018958230E8F4C2
:10098000E82FF0E0EE0FFF1FEA50FE4F7183608307
:10099000813041F0809169008C7F842B80936900C5
:1009A000E89A089580916900440F551F440F551F20
:1009B000837F842B80936900E99A08951F920F9298
:1009C0000FB60F9211242F933F934F935F936F9322
:1009D0007F938F939F93AF93BF93EF93FF938091F8
:1009E000F6019091F701892B29F0E091F601F09141
:1009F000F7010995FF91EF91BF91AF919F918F9171
:100A00007F916F915F914F913F912F910F900FBE0A
:100A10000F901F9018951F920F920FB60F921124EE
:100A20002F933F934F935F936F937F938F939F93F6
:100A3000AF93BF93EF93FF938091F8019091F901E9
:100A4000892B29F0E091F801F091F9010995FF91C6
:100A5000EF91BF91AF919F918F917F916F915F9136
:100A60004F913F912F910F900FBE0F901F901895AF
:100A7000833081F028F4813099F08230A1F008951C
:100A80008730A9F08830B9F08430D1F480918000AB
:100A90008F7D03C0809180008F77809380000895C0
:100AA00084B58F7702C084B58F7D84BD0895809111
:100AB000B0008F7703C08091B0008F7D8093B0002D
:100AC0000895CF93DF9390E0FC01E458FF4F249109
:100AD000FC01E057FF4F8491882349F190E0880F93
:100AE000991FFC01E854FF4FA591B49182559F4F87
:100AF000FC01C591D4919FB7611108C0F8948C9105
:100B0000209582238C93888182230AC0623051F41D
:100B1000F8948C91322F309583238C938881822B8B
:100B2000888304C0F8948C91822B8C939FBFDF91B3
:100B3000CF9108950F931F93CF93DF931F92CDB75B
:100B4000DEB7282F30E0F901E859FF4F8491F90111
:100B5000E458FF4F1491F901E057FF4F049100232F
:100B6000C9F0882321F069830E9438056981E02F4C
:100B7000F0E0EE0FFF1FE255FF4FA591B4919FB734
:100B8000F8948C91611103C01095812301C0812BD1
:100B90008C939FBF0F90DF91CF911F910F9108957C
:100BA000CF93DF93282F30E0F901E859FF4F84916C
:100BB000F901E458FF4FD491F901E057FF4FC49178
:100BC000CC2391F081110E943805EC2FF0E0EE0F5C
:100BD000FF1FEC55FF4FA591B4912C912D2381E07F
:100BE00090E021F480E002C080E090E0DF91CF91BE
:100BF00008951F920F920FB60F9211242F933F93D7
:100C00008F939F93AF93BF938091FB019091FC01D1
:100C1000A091FD01B091FE013091FA0123E0230F74
:100C20002D3720F40196A11DB11D05C026E8230F24
:100C30000296A11DB11D2093FA018093FB019093B0
:100C4000FC01A093FD01B093FE018091FF01909102
:100C50000002A0910102B09102020196A11DB11DF6
:100C60008093FF0190930002A0930102B0930202CF
:100C7000BF91AF919F918F913F912F910F900FBE98
:100C80000F901F9018952FB7F8946091FB01709109
:100C9000FC018091FD019091FE012FBF08953FB7A7
:100CA000F8948091FF0190910002A0910102B0910F
:100CB000020226B5A89B05C02F3F19F00196A11D81
:100CC000B11D3FBF6627782F892F9A2F620F711DA4
:100CD000811D911D42E0660F771F881F991F4A955D
:100CE000D1F70895CF92DF92EF92FF92CF93DF93E7
:100CF0006B017C010E944F06EB01C114D104E10499
:100D0000F10489F00E94990B0E944F066C1B7D0B29
:100D1000683E734090F381E0C81AD108E108F108F9
:100D2000C851DC4FEACFDF91CF91FF90EF90DF9079
:100D3000CF900895789484B5826084BD84B5816035
:100D400084BD85B5826085BD85B5816085BDEEE6D3
:100D5000F0E0808181608083E1E8F0E010828081B2
:100D600082608083808181608083E0E8F0E0808120
:100D700081608083E1EBF0E0808184608083E0EB40
:100D8000F0E0808181608083EAE7F0E08081846028
:100D90008083808182608083808181608083808184
:100DA000806880831092C10008958E3008F08E50C4
:100DB000877020910E0190E4299F90011124822BCD
:100DC00080937C0080917A00806480937A00809187
:100DD0007A0086FDFCCF809178002091790090E028
:100DE000922B0895CF92DF92EF92FF920F931F9371
:100DF000CF93DF936C017A01EB01E60EF71E00E062
:100E000010E0CE15DF0561F06991D601ED91FC91FE
:100E10000190F081E02DC6010995080F191FF1CF4F
:100E2000C801DF91CF911F910F91FF90EF90DF905C
:100E3000CF9008956115710581F0DB010D900020C0
:100E4000E9F7AD0141505109461B570BDC01ED910B
:100E5000FC910280F381E02D099480E090E00895F8
:100E6000DC01ED91FC91DB0114964D915C9115979D
:100E70006D917C910280F381E02D099464EA71E028
:100E80000C941A070F931F93CF93DF93EC010E94EA
:100E900030078C01CE010E943E07800F911FDF9129
:100EA000CF911F910F9108950F931F93CF93DF93CD
:100EB000EC010E941A078C01CE010E943E07800FB0
:100EC000911FDF91CF911F910F9108950F931F9361
:100ED000CF93DF93EC010E944306688779878A8766
:100EE0009B87E881F9810680F781E02DCE01099585
:100EF00097FF15C00E944306088519852A853B8502
:100F0000601B710B820B930B0C811D812E813F8125
:100F1000601771078207930720F38FEF9FEFDF9130
:100F2000CF911F910F910895EF92FF920F931F930E
:100F3000CF93DF93EC018B01E42E66EA71E00E940F
:100F40002A08C8010E946607FF24E7FCF09497FD79
:100F50000BC08E159F0541F0682FCE010E94C70877
:100F6000C8010E946607F3CFCE01DF91CF911F9198
:100F70000F91FF90EF900895FC01808191810C9476
:100F8000C50DCF93DF93EC0188819981009711F013
:100F90000E94C50D198218821D821C821B821A8232
:100FA000DF91CF9108950F931F93CF93DF93EC01BF
:100FB0008B016F5F7F4F888199810E94540E00974B
:100FC00031F0998388831B830A8381E001C080E02C
:100FD000DF91CF911F910F910895CF93DF93EC0193
:100FE00088819981892B29F08A819B8186179707AF
:100FF00060F4CE010E94D307882341F08C819D814B
:10100000892B19F4E881F981108281E0DF91CF9179
:101010000895EF92FF920F931F93CF93DF93EC010C
:101020007B018A01BA010E94ED07811104C0CE0143
:101030000E94C10707C01D830C83B7018881998175
:101040000E94570FCE01DF91CF911F910F91FF901A
:10105000EF900895FC011182108213821282158292
:1010600014826115710559F0FB0101900020E9F728
:10107000AF0141505109461B570B0C9409080895C4
:10108000CF93DF93EC01FB018617970761F0608136
:1010900071816115710529F0448155810E9409080B
:1010A00002C00E94C107CE01DF91CF910895CF9376
:1010B000DF93EC016115710561F0FB0101900020E7
:1010C000E9F7AF0141505109461B570B0E9409082F
:1010D00002C00E94C107CE01DF91CF9108950F9306
:1010E0001F93CF93DF93CDB7DEB762970FB6F89417
:1010F000DEBF0FBECDBF8C01CB01F8011182108283
:10110000138212821582148250E0BE016F5F7F4FFE
:101110000E945E0FBE016F5F7F4FC8010E9457089B
:1011200062960FB6F894DEBF0FBECDBFDF91CF91B0
:101130001F910F910895EF92FF920F931F93CF93FA
:10114000DF93EC017B010C811D816115710511F4A8
:1011500080E016C04115510591F0040F151FB8012C
:101160000E94ED078823A1F3288139818C819D811C
:10117000B701820F931F0E94570F1D830C8381E0DC
:10118000DF91CF911F910F91FF90EF900895CF9332
:10119000DF9300D0CDB7DEB769831A8241E050E01B
:1011A000BE016F5F7F4F0E949B080F900F90DF91F1
:1011B000CF910895CF93DF93EC01FB0144815581DA
:1011C000608171810E949B08811103C0CE010E9441
:1011D000C107CE01DF91CF910895CF93DF93DC015A
:1011E000ED91FC91EB01A881B981309711F0109736
:1011F000C9F4109759F0EB012C813D81232B31F07C
:101200008C9190E091958195910914C0309781F06F
:10121000DC0114968D919C911597892B49F0808162
:1012200090E008C0BD01CF01DF91CF910C944E0F2B
:1012300080E090E0DF91CF910895FC0144815581D9
:10124000FB01248135814217530741F40E94ED08C8
:1012500021E0892B09F020E0822F089580E0089595
:10126000FC0124813581232B31F421E061157105C6
:10127000A1F0FB0108C0FC0180819181611571051D
:1012800031F421E0FC018081882339F005C00E94FF
:101290004E0F21E0892B09F020E0822F0895BF92A4
:1012A000CF92DF92EF92FF920F931F93CF93DF9332
:1012B0006C017B01EA0189012417350720F48D2F89
:1012C000E901042F182F66EA71E0C6010E942A087E
:1012D000D70114968D919C911597C817D907C8F41A
:1012E0008017910708F48C01D701ED91FC911197BB
:1012F000E00FF11FB08010826D917C916C0F7D1F0B
:10130000C6010E945708D701ED91FC91E00FF11F33
:10131000B082C601DF91CF911F910F91FF90EF90A6
:10132000DF90CF90BF900895FC018081918100975C
:1013300011F00C941E0F60E070E0CB0108951F9235
:101340000F920FB60F9211242F938F939F93EF93C9
:10135000FF93E0911302F09114028081E091190251
:10136000F0911A0282FD12C0908180911C028F5F61
:101370008F7320911D02821751F0E0911C02F0E062
:10138000ED5FFD4F958F80931C0201C08081FF911E
:10139000EF919F918F912F910F900FBE0F901F9003
:1013A00018951F920F920FB60F9211242F933F930F
:1013B0004F935F936F937F938F939F93AF93BF935D
:1013C000EF93FF9383E092E00E947F0AFF91EF91F9
:1013D000BF91AF919F918F917F916F915F914F914D
:1013E0003F912F910F900FBE0F901F90189583E0A3
:1013F00092E00E94440A21E0892B09F420E0822F28
:101400000895109206021092050288EE93E0A0E083
:10141000B0E08093070290930802A0930902B09372
:101420000A0289EB91E0909304028093030285EC19
:1014300090E09093100280930F0284EC90E09093E0
:1014400012028093110280EC90E09093140280933A
:10145000130281EC90E0909316028093150282ECC7
:1014600090E0909318028093170286EC90E090939E
:101470001A028093190210921C0210921D021092FF
:101480001E0210921F020895FC01818D228D90E0B2
:10149000805C9F4F821B91098F7399270895FC01EF
:1014A000918D828D981731F0828DE80FF11D858D19
:1014B00090E008958FEF9FEF0895FC01918D828D4C
:1014C000981761F0828DDF01A80FB11D5D968C9198
:1014D000928D9F5F9F73928F90E008958FEF9FEFA3
:1014E000089587EF99E0892B49F080E090E0892BFF
:1014F00029F00E94F70981110C9400000895FC0165
:10150000848DDF01A80FB11DA35ABF4F2C91848D8C
:1015100090E001968F739927848FA689B7892C93C1
:10152000A089B1898C9180648C93938D848D98135C
:1015300006C00288F389E02D80818F7D8083089525
:10154000CF93DF93EC01888D8823C9F0EA89FB896A
:10155000808185FD05C0A889B9898C9186FD0FC061
:101560000FB607FCF5CF808185FFF2CFA889B98936
:101570008C9185FFEDCFCE010E947F0AE7CFDF91EE
:10158000CF910895CF92DF92FF920F931F93CF9345
:10159000DF931F92CDB7DEB76C0181E0D60158967C
:1015A0008C9358975B969C915B975C968C915C971B
:1015B000981307C05096ED91FC915197808185FD5D
:1015C0002EC0F601038D10E00F5F1F4F0F73112720
:1015D000F02EF601848DF81211C00FB607FCF9CF7A
:1015E000D6015096ED91FC915197808185FFF1CF06
:1015F000C60169830E947F0A6981EBCF838DE80F62
:10160000F11DE35AFF4F6083D6015B960C935B9705
:101610005296ED91FC915397808180620CC0D60167
:101620005696ED91FC91579760835096ED91FC9101
:10163000519780818064808381E090E00F90DF91FA
:10164000CF911F910F91FF90DF90CF900895BF929F
:10165000CF92DF92EF92FF92CF93DF93EC016A017A
:101660007B01B22EE889F98982E08083411581EE01
:10167000580761057105A1F060E079E08DE390E025
:10168000A70196010E94D20C21503109410951094C
:101690005695479537952795211580E1380798F09D
:1016A000E889F989108260E874E88EE190E0A7018A
:1016B00096010E94D20C21503109410951095695D9
:1016C000479537952795EC85FD853083EE85FF8519
:1016D0002083188EEC89FD89B082EA89FB8980819C
:1016E00080618083EA89FB89808188608083EA89C0
:1016F000FB89808180688083EA89FB8980818F7D76
:101700008083DF91CF91FF90EF90DF90CF90BF90DB
:10171000089508950E949A060E94890B0E94DD0098
:10172000C1E7DAE00E9417022097E1F30E94710AF4
:10173000F9CF08955058BB27AA270ED0E5C0D6D0C0
:1017400030F0DBD020F031F49F3F11F41EF4CBC019
:101750000EF4E095E7FBC1C0E92FE7D080F3BA179C
:10176000620773078407950718F071F49EF5FFC0B0
:101770000EF4E0950B2EBA2FA02D0B01B9019001AC
:101780000C01CA01A0011124FF27591B99F0593FF0
:1017900050F4503E68F11A16F040A22F232F342F38
:1017A0004427585FF3CF469537952795A795F04086
:1017B0005395C9F77EF41F16BA0B620B730B840B9B
:1017C000BAF09150A1F0FF0FBB1F661F771F881F53
:1017D000C2F70EC0BA0F621F731F841F48F48795AB
:1017E00077956795B795F7959E3F08F0B3CF93959A
:1017F000880F08F09927EE0F97958795089504D0E4
:101800006894B111B5C0089598D088F09F5790F0B2
:10181000B92F9927B751A0F0D1F0660F771F881F15
:10182000991F1AF0BA95C9F712C0B13081F09FD054
:10183000B1E008959CC0672F782F8827B85F39F0F2
:10184000B93FCCF3869577956795B395D9F73EF474
:1018500090958095709561957F4F8F4F9F4F08951C
:10186000E89409C097FB3EF490958095709561953A
:101870007F4F8F4F9F4F9923A9F0F92F96E9BB27F0
:101880009395F695879577956795B795F111F8CF6C
:10189000FAF4BB0F11F460FF1BC06F5F7F4F8F4FD7
:1018A0009F4F16C0882311F096E911C0772321F0CD
:1018B0009EE8872F762F05C0662371F096E8862F65
:1018C00070E060E02AF09A95660F771F881FDAF7BC
:1018D000880F9695879597F9089597F99F6780E8FF
:1018E00070E060E008959FEF80EC089500240A9472
:1018F0001616170618060906089500240A941216EB
:101900001306140605060895092E0394000C11F41D
:10191000882352F0BB0F40F4BF2B11F460FF04C0CA
:101920006F5F7F4F8F4F9F4F089557FD9058440F23
:10193000551F59F05F3F71F04795880F97FB991F2E
:1019400061F09F3F79F087950895121613061406EB
:10195000551FF2CF4695F1DF08C016161706180678
:10196000991FF1CF86957105610508940895E89453
:10197000BB2766277727CB0197F9089597FB072E9A
:1019800016F4009407D077FD09D00E94130D07FCD0
:1019900005D03EF4909581959F4F0895709561957F
:1019A0007F4F0895A1E21A2EAA1BBB1BFD010DC09B
:1019B000AA1FBB1FEE1FFF1FA217B307E407F507FF
:1019C00020F0A21BB30BE40BF50B661F771F881FDB
:1019D000991F1A9469F760957095809590959B0171
:1019E000AC01BD01CF010895052E97FB1EF40094B4
:1019F0000E940B0D57FD07D00E94D20C07FC03D0AC
:101A00004EF40C940B0D50954095309521953F4F19
:101A10004F4F5F4F089590958095709561957F4FDA
:101A20008F4F9F4F0895AA1BBB1B51E107C0AA1FF0
:101A3000BB1FA617B70710F0A61BB70B881F991F6F
:101A40005A95A9F780959095BC01CD010895EE0FA8
:101A5000FF1F0590F491E02D0994CF93DF9382301E
:101A6000910510F482E090E0E091A202F091A302CF
:101A700020E030E0A0E0B0E0309739F140815181C2
:101A800048175907B8F04817590771F482819381B4
:101A9000109729F013969C938E9312972CC09093D5
:101AA000A3028093A20227C02115310531F042170D
:101AB000530718F0A901DB0101C0EF019A01BD0134
:101AC000DF010280F381E02DD7CF21153105F9F038
:101AD000281B390B2430310580F48A819B816115E4
:101AE000710521F0FB019383828304C09093A302CC
:101AF0008093A202FE01329644C0FE01E20FF31F62
:101B00008193919322503109398328833AC02091DF
:101B1000A0023091A102232B41F4209102013091C7
:101B200003013093A1022093A00220910001309183
:101B300001012115310541F42DB73EB74091040153
:101B400050910501241B350BE091A002F091A102F8
:101B5000E217F307A0F42E1B3F0B2817390778F084
:101B6000AC014E5F5F4F2417350748F04E0F5F1FE3
:101B70005093A1024093A0028193919302C0E0E0B0
:101B8000F0E0CF01DF91CF910895CF93DF930097DD
:101B900009F487C0FC01329713821282C091A2021D
:101BA000D091A302209781F420813181280F391F21
:101BB0008091A0029091A1028217930779F5F0938A
:101BC000A102E093A0026DC0DE0120E030E0AE177C
:101BD000BF0750F412964D915C9113979D014115EA
:101BE000510509F1DA01F3CFB383A283408151811A
:101BF000840F951F8A179B0771F48D919C91119703
:101C0000840F951F02969183808312968D919C91EB
:101C10001397938382832115310529F4F093A3024E
:101C2000E093A2023EC0D9011396FC93EE93129763
:101C30004D915D91A40FB51FEA17FB0779F48081E0
:101C40009181840F951F0296D90111969C938E93D2
:101C50008281938113969C938E931297E0E0F0E03B
:101C60008A819B81009719F0FE01EC01F9CFCE012A
:101C7000029628813981820F931F2091A002309112
:101C8000A1022817390769F4309729F41092A302AA
:101C90001092A20202C013821282D093A102C093BA
:101CA000A002DF91CF910895A0E0B0E0EAE5FEE068
:101CB0000C94B70FEC01CB01209719F40E942D0D65
:101CC000B8C0FE01E60FF71F9E0122503109E2174E
:101CD000F30708F4ACC0D9010D911C9111970617B8
:101CE0001707B8F00530110508F49FC0A80144504B
:101CF00051094617570708F498C002501109061BEE
:101D0000170B019311936D937C93CF010E94C50D26
:101D10008CC05B01A01AB10A4E01800E911EA091E9
:101D2000A202B091A302612C712C60E070E01097C8
:101D300009F449C0A815B905C9F5ED90FC901197B3
:101D4000670142E0C40ED11CCA14DB0478F14701DC
:101D50008A189B08640142E0C40ED11C1296BC9004
:101D600012971396AC91B5E0CB16D10440F0B28235
:101D7000A38391828082D9018D939C9309C00E5FC9
:101D80001F4F0E0D1F1DF90111830083EB2DFA2F3C
:101D90006115710531F0DB011396FC93EE931297F8
:101DA00044C0F093A302E093A2023FC06D917C91E6
:101DB00011976616770608F43B01BD0112960D9047
:101DC000BC91A02DB4CF6091A0027091A1026815C2
:101DD0007905E9F468167906D0F440910001509134
:101DE00001014115510541F44DB75EB76091040101
:101DF00070910501461B570BE417F507C0F4F093EB
:101E0000A102E093A002F901918380830EC00E9499
:101E10002D0D7C01009759F0A801BE010E94450FCD
:101E2000CE010E94C50DC70104C0CE0102C080E0F2
:101E300090E0CDB7DEB7EEE00C94D30F1F93FC011A
:101E400099278827BC01E89411911032E9F31930E1
:101E500010F01E30C8F31B3251F01D3249F4689463
:101E600006C00E94740F610F711D811D911D11919B
:101E700010531A30B0F33EF49095809570956195AB
:101E80007F4F8F4F9F4F1F910895FB01DC0102C0D0
:101E900001900D9241505040D8F70895FB01DC01AC
:101EA0008D91019080190110D9F3990B0895FB01D0
:101EB000DC0101900D920020E1F7089545325105B3
:101EC00020F4423010F00C94690FFB011082CB011A
:101ED0000895BB274A3031F4992322F4BDE290954E
:101EE00081959F4F0C948A0F592F482F372F262FFB
:101EF000660F771F881F991F660F771F881F991F0E
:101F0000620F731F841F951F660F771F881F991F0D
:101F10000895BB27FB015527AA27880F991FAA1FE1
:101F2000A41710F0A41B83955051B9F7A05DAA33F4
:101F300008F0A95DA193009779F7B111B1931192BF
:101F4000CB010C94A30FDC01FC01672F7191772367
:101F5000E1F7329704C07C916D9370836291AE1764
:101F6000BF07C8F308952F923F924F925F926F92EE
:101F70007F928F929F92AF92BF92CF92DF92EF9219
:101F8000FF920F931F93CF93DF93CDB7DEB7CA1B9A
:101F9000DB0B0FB6F894DEBF0FBECDBF09942A88C5
:101FA000398848885F846E847D848C849B84AA846D
:101FB000B984C884DF80EE80FD800C811B81AA81FA
:101FC000B981CE0FD11D0FB6F894DEBF0FBECDBFC5
:101FD000ED01089510E0C6ECD0E004C0FE010E94BF
:0E1FE000290D2296C83CD107C9F7F894FFCF0F
:101FEE000000A4028000010073004B00960401570C
:101FFE006946692D32412D44696D6D6572004469E3
:10200E006D6D65723A00525F312073776974636843
:10201E0065642076696120776562207265717565E9
:10202E00737420746F203100525F3120737769749E
:10203E0063686564207669612077656220726571D8
:10204E007565737420746F2030004C6F6164206965
:10205E0073204F4646004C6F6164206973204F4ECB
:10206E0000556172742076616C756520746F200066
:10207E00526567756C61746F722076616C75652040
:10208E00746F20000D0A006E616E00696E66006F3F
:10209E007666002E0000000000C20AF206440A5DB9
:0620AE000A4F0AA00A001F
:00000001FF
